:1000000000600020E90400002D050000310500001B
:1000100000000000000000000000000000000000E0
:100020000000000000000000000000003505000096
:100030000000000000000000390500003D05000040
:100040004105000045050000490500004D05000080
:1000500029050000290500002905000029050000E8
:100060005105000055050000590500005D05000020
:100070009D4100006505000069050000CD3F0000BE
:1000800029050000290500002905000029050000B8
:100090002905000029050000E14B00006D05000066
:1000A0002905000029050000290500002905000098
:1000B000290500002905000041470000290500002E
:10040000FFFFFFFFFFFFFFFFFFFFFFFFFEFFFFFFFD
:1004100010B5064C2378002B07D1054B002B02D0DA
:10042000044800E000BF0123237010BDACE0FF1FB3
:1004300000000000A496000008B5084B002B03D074
:100440000748084900E000BF07480368002B03D0B5
:10045000064B002B00D0984708BDC04600000000A6
:10046000A4960000B0E0FF1FA8E0FF1F00000000FE
:10047000164B002B00D1144B9D46402292029A1A33
:10048000924600218B460F461348144A121A06F072
:10049000EEFC0F4B002B00D098470E4B002B00D0EA
:1004A00098470020002104000D000D48002802D0CC
:1004B0000C4800E000BF06F0ABFC2000290004F06F
:1004C00055F906F08FFCC0460000080000600020CF
:1004D0000000000000000000ACE0FF1F18EAFF1F52
:1004E000000000000000000072B6084808490160E2
:1004F000084880470849094A094B9B1A03DD043B19
:10050000C858D050FBDC62B60648804708ED00E0D2
:1005100000000000993D0000CC96000000E0FF1FA5
:10052000ACE0FF1F7104000011480047114800476C
:10053000114800471148004711480047114800473B
:10054000114800471148004711480047114800472B
:10055000114800471148004711480047114800471B
:10056000114800471148004711480047114800470B
:10057000290500002D0500003105000035050000AB
:10058000390500003D050000D15D0000E95D000077
:10059000015E0000195E0000D15F0000F15F000005
:1005A000056700004D67000061650000516C0000A8
:1005B000756C000089660000002934D001230022F8
:1005C00010B488422CD301242407A14204D28142D2
:1005D00002D209011B01F8E7E400A14204D28142E2
:1005E00002D249005B00F8E7884201D3401A1A435F
:1005F0004C08A04202D3001B5C0822438C08A04296
:1006000002D3001B9C082243CC08A04202D3001B4B
:10061000DC082243002803D01B0901D00909E3E7C5
:10062000101C10BC7047002801D00020C04307B444
:10063000024802A14018029003BDC046D900000044
:100640000029F0D003B5FFF7B9FF0EBC4243891A69
:100650001847C046002941D010B4041C4C40A446A1
:1006600001230022002900D54942002800D540423C
:1006700088422CD301242407A14204D2814202D211
:1006800009011B01F8E7E400A14204D2814202D231
:1006900049005B00F8E7884201D3401A1A434C082E
:1006A000A04202D3001B5C0822438C08A04202D364
:1006B000001B9C082243CC08A04202D3001BDC088C
:1006C0002243002803D01B0901D00909E3E7101CCD
:1006D0006446002C00D5404210BC7047002806D06C
:1006E00003DB0020C043400801E08020000607B47F
:1006F000024802A14018029003BDC0461900000044
:100700000029EBD003B5FFF7A7FF0EBC4243891ABF
:100710001847C0467047C0468446081C6146FFE73C
:100720001FB500F05BFA002801D40021C8421FBDAC
:1007300010B500F0E1F94042013010BD10B500F0F5
:100740004DFA002801DB002010BD012010BDC0467D
:1007500010B500F043FA002801DD002010BD012093
:1007600010BDC04610B500F0F1F9002801DC0020F2
:1007700010BD012010BDC04610B500F0E7F90028FB
:1007800001DA002010BD012010BDC046002B11D1A0
:10079000002A0FD1002900D1002802D00021C9432E
:1007A000081C07B4024802A14018029003BDC046CD
:1007B00065FFFFFF03B4684601B5029800F05CF8DE
:1007C000019B9E4602B00CBC7047C0469C46030489
:1007D000F0B51B0C17043F0C150C1E1C041C000C60
:1007E0007E436B4347434543FB18300C1818874240
:1007F00002D980235B02ED18030CED1863465C43BD
:100800004A433604360CA118000480194919F0BD7A
:100810009E2110B5C905041CFFF7AEFF002803D1C7
:10082000201C00F0C7FC10BD9E21C905201C00F053
:100830004BFB00F0BFFC80231B06C018F3E7C0464B
:10084000F0B583B0161C1F1C0090019100F0CCFD88
:10085000041C0D1C221C2B1C301C391CFFF7B6FF7E
:10086000009A019B121A8B410899201C0A604B6068
:10087000291C03B0F0BDC046F0B583B0141C1D1C8C
:100880000090019100F08CFF221C2B1C061C0F1CF9
:10089000FFF79CFF009A019B121A8B410899301CAC
:1008A0000A604B60391C03B0F0BDC046F0B55F462E
:1008B00056464D464446F0B446024500C00F85B04A
:1008C0000F1C760A2D0E804641D0FF2D26D08024A5
:1008D000240400212643F6007F3D89468B46F90F0C
:1008E0007C027800640A000E00918A463CD0FF2802
:1008F00034D080231B041C430023E4007F38019381
:10090000009F4346019A7B4049469C4611430F296C
:1009100000D971E0764F89007F58BF46002E3ED146
:100920000822022391469B46D9E75A46341CC24608
:1009300001920199022937D0032900D1CFE0012982
:1009400000D0ABE053460B400022002632E0002EE0
:1009500019D10421012289469346C0E7221C531E67
:100960009A4102320192CBE701270197002CC7D0B0
:10097000201C00F01BFD431F9C4076235B4200219E
:10098000181A0191BCE7301C00F010FD7625431FBA
:100990009E406D4200232D1A99469B469FE70C23EB
:1009A000032199468B469AE7D446012367463B408C
:1009B000FF2200267602D205700ADB071043184397
:1009C00005B03CBC90469946A246AB46F0BD802699
:1009D0000023F603FF22EDE700220026EAE780204D
:1009E000C00306423BD0044239D1061C264376029E
:1009F000760A009BFF22DDE7281A03907601640146
:100A0000A64239D3361B1A2201230120311C5B0078
:100A10007600002901DBB44201D8361B0343013ABA
:100A2000002AF3DC741EA641341C1C43039A7F3257
:100A3000002A27DD630704D00F232340042B00D0B6
:100A40000434270103D52B4B039A1C408032FE2A25
:100A50000BDD012361460B40FF220026AAE7064377
:100A60007602760A4346FF22A4E7A40101236746E3
:100A7000660AD2B23B409DE7039F1B22013F0397CA
:100A80000023C2E77E23039F5B42DB1B1B2B07DD9A
:100A9000012361460B40002200268BE7D446C5E7C0
:100AA000221CDA40039B9E339C40231C5C1EA34106
:100AB00013435A0704D00F221A40042A00D00433EB
:100AC0005F0105D5012361460B400122002671E735
:100AD0009E01624601231340760A00226AE78026BF
:100AE000F60326437602760A5346FF2262E7C046A3
:100AF0005C900000FFFFFFF74A02430270B55C0AFA
:100B0000550A43004A001B0EC60F120EC90FFF2BD9
:100B100005D0FF2A08D0012093420BD070BD0120E0
:100B2000002CFBD1FF2AF6D10120002DF6D10120A7
:100B30009342F3D1AC42F1D18E4205D0002BEDD1DE
:100B4000201C441EA041E9E70020E7E74A024302D7
:100B5000F0B55C0A550A43004A001B0EC60F120E80
:100B6000C90FFF2B31D0FF2A34D0002B16D16042A1
:100B700060418446002A14D0002820D18E4217D12B
:100B8000934215DC04DBAC4212D80020AC4212D2F6
:100B9000704270414042012318430CE0002AEDD11D
:100BA00094466F426F416046002805D1002FE5D082
:100BB000704201231843F0BD0020002FFBD14842B2
:100BC0004841404201231843F5E7002CCBD00220D6
:100BD0004042F0E7002DC8D0F9E7C0464A02430280
:100BE000F0B55C0A550A43004A001B0EC60F120EF0
:100BF000C90FFF2B27D0FF2A29D0002B10D0002AA5
:100C000015D194466F426F416046002815D00020F0
:100C1000002F04D148424841404201231843F0BD0F
:100C2000604260418446002AECD00028F2D18E4216
:100C300011D0704201231843F1E7002FF7D0704222
:100C400001231843EBE70220002CE8D1D3E7022070
:100C5000002DE4D1D1E79342EBDC04DBAC42E8D8D1
:100C60000020AC42DBD27042704140420123184365
:100C7000D5E7C046F0B55F4656464D464446F0B40B
:100C80004402460083B00F1C640A360EC50F002EC6
:100C900041D0FF2E22D080231B0400201C43E400FF
:100CA0007F3E82468046391C4B007F02C90F7F0A77
:100CB0001B0E8B463BD0FF2B34D0802212041743EF
:100CC000FF007F3B00215A466A40019252460A4388
:100CD0000F2A63D87A48920082589746002C3FD159
:100CE0000822022392469846DDE7019540460228F5
:100CF0002AD1019A01251540FF2300246402DB0557
:100D0000600AED071843284303B03CBC904699465F
:100D1000A246AB46F0BD002C27D10420012282461A
:100D20009046C0E7391C4A1E91410231CBE70121B0
:100D3000002FC8D0381C00F039FB431F9F4076239A
:100D40005B421B1A0021BEE7032800D1AEE0012858
:100D50004FD1019842461040C5B200230024CDE790
:100D60000C2303209A4680469DE7201C00F01EFBC2
:100D70007626431F9C4076420023361A9A469846B0
:100D800091E780240025E403FF23B7E75B463C1C82
:100D900001938846AAE73C1C8846A7E7250C240453
:100DA0003A0C240C3F04F6183F0C211C231C7943F9
:100DB00053436F435543FB180A0C9B18B1469F429F
:100DC00002D980225202AD1809041A04090C5218E3
:100DD00094011B0C611E8C41920EED181443AD0161
:100DE0002C43230105D501226308012014408144CE
:100DF0001C434B467F33002B2DDD600704D00F22B0
:100E00002240042A00D00434220103D52D4B1C407B
:100E10004B468033FE2B17DD019B01251D4000242E
:100E2000FF236BE78020C003044208D0074206D1AD
:100E3000041C3C436402640A5D46FF235EE70443EE
:100E40006402640AFF2359E70198A4010125640A9A
:100E5000DBB2054052E77E235B424A469B1A1B2BBE
:100E600005DD019B01251D400024002346E7221CCF
:100E7000DA404B469E339C40231C5C1EA341134327
:100E8000580704D00F221A40042A00D004335A0114
:100E900005D5019B01251D40002401232EE7019863
:100EA0009C010125640A0540002327E78027FF03F2
:100EB000019B3C43640201251D40640AFF231DE79A
:100EC0009C900000FFFFFFF7F8B5C20F43024400FB
:100ED0004D024800240E161C9B09000EC90FAD09D7
:100EE000FF2800D183E0012779408A425CD0221A92
:100EF000002A00DC8EE000281ED1002D00D07AE010
:100F0000580704D00F221A40042A00D0043380214D
:100F1000C90401221940324000293AD00134FF2C83
:100F200000D183E09B015B0A5B02E4B2E405580A4E
:100F3000D20720431043F8BDFF2CE1D08021C90423
:100F40000D431B2A00DD31E1291C2020D140821AEB
:100F500095406A1E95410D435B1B5801D0D59B01FE
:100F60009F09381C00F022FA421F974094425FDC30
:100F7000141B1F231B1B3A1C9F40611C3B1CCA40B7
:100F80005F1EBB4113430024BAE7131EB8D10023F0
:100F90000022DB08FF2C04D1002B47D08020C003A7
:100FA00003435B025B0ABFE7211A002944DD0028E6
:100FB00027D0FF2CA4D08020C00405431B2900DDCE
:100FC000F2E0281C2027C840791A8D40691E8D4107
:100FD00005435B19590100D492E70134FF2C59D025
:100FE000734901221A400B405B08134388E7002D28
:100FF00000D07AE777E7013A002AADD0FF2CA0D1E4
:101000007EE7002D00D17BE701390029E1D0FF2CDC
:10101000D4D175E7002A1BD1621CD2B2012A4BDD64
:101020005F1B7A0123D5EF1A0E1C9AE700237BE79A
:101030005F4BA41A3B4063E7002946D1611CC8B24C
:10104000012829DDFF2924D0EB185B080C1C57E789
:10105000002C13D0FF2818D08024E40452422343EC
:101060001B2A4DDD0123EB1A041C0E1C75E7002F13
:1010700000D076E70023002200248AE7002B3BD033
:10108000D243002AEFD0FF28EAD12B1CFF240E1CEC
:1010900036E7FF2400237CE7002C5CD1002B00D135
:1010A00080E0002D00D12BE75B19580100D427E721
:1010B0003F4A0124134023E7002C15D1002B40D1D7
:1010C000002D63D02B1C0E1C1AE7002C21D1002B05
:1010D00054D0C943002904D0FF284CD01B2958DD27
:1010E00001235B19041C75E7002B19D1002D48D092
:1010F0002B1C0E1CFF2403E72B1C041C0E1CFFE6FC
:101100001C1C2026D440B21A93405A1E93412343FC
:10111000A9E7FF282FD08024E40449422343DDE7D8
:10112000FF24002D00D1EBE68022DB08D20313421E
:1011300004D0ED08154201D12B1C0E1CDB00FF244E
:10114000DEE6002D00D1DBE65A1B500100D41CE77F
:10115000EB1A0E1CD4E6002B0DD0FF24002D00D17D
:10116000CEE68022DB08D2031342E7D0ED08154219
:10117000E4D12B1CE2E72B1CFF24C1E62B1C041C32
:10118000BEE6802300229B04FF2402E7231C0022EA
:10119000FFE61C1C2027CC40791A8B40591E8B413E
:1011A00023439EE72B1CABE6012512E70125D3E67E
:1011B000FFFFFFFB4302590A4300C20F1B0E002032
:1011C0007E2B0DDD9D2B0CDC802000040143952B34
:1011D0000ADC9620C31AD9404842002A00D1081CD4
:1011E0007047034BD018FBE7963B9940F4E7C046A5
:1011F000FFFFFF7F10B5041E33D000F0D7F89E2309
:101200001B1A962B09DC083884406402640ADBB29E
:101210006402DB05600A184310BD992B0ADD052224
:10122000121A211CD1400A1C011C1B318C40611E6A
:101230008C411443052801DD421F9440144A22408A
:10124000610704D00F210C40042C00D0043251015E
:101250000AD59F23181AFF2816D09401640AC3B236
:10126000D6E700230024D3E7D208FF2B03D0540293
:10127000640ADBB2CCE7002A06D08024E4031443DE
:101280006402640AFF23C3E7FF230024C0E7C046CB
:10129000FFFFFFFBF0B54B000D03420F5B0D6D0A26
:1012A00015435A1C5205CC0FC600520D012A27DDEA
:1012B000394FDA19FE2A1ADC002A35DD8001ED00EB
:1012C000431E98412843760F3043430704D00F2331
:1012D0000340042B00D004308021C904014027D0F2
:1012E0000132FF2A1DD083015B0AD1B201E0FF2148
:1012F00000235802C905400AE40708432043F0BD13
:10130000002B06D1354311D10021002043025B0A96
:10131000EFE72E43EBD08020ED0080042843FF222E
:10132000D3E7FF210023E4E717320DDA052000227E
:10133000C008D1B2FF2AE9D10028D9D08023DB032D
:1013400003435B025B0AD4E780221449120415436D
:10135000C91A1F290DDC124A371C9B18281C9F40F4
:1013600098403B1C5A1E93411843CE403043002204
:10137000ABE70C4F2A1CFF1AFA40171C202909D092
:10138000094A98188540281C3043461EB04138430E
:1013900000229AE70020F7E780FCFFFF9E03000091
:1013A00082FCFFFF7E030000A2FCFFFF1C21012343
:1013B0001B04984201D3000C10391B0A984201D338
:1013C000000A08391B09984201D30009043902A216
:1013D000105C40187047C04604030202010101017D
:1013E0000000000000000000F0B544465F4656468D
:1013F0004D46F0B41C1C85B0002900DADBE00F1C60
:101400000021061C8A46101C191C002C00DAC9E0B9
:101410000196009089468046002951D1B84200D8F3
:1014200071E0FFF7C3FF002809D020234546311C97
:101430001B1A85408740D940A8460F438640424644
:10144000150C13041B0C291C381C9B46FFF7B4F821
:101450005B464343041C291C381C9946FFF7F0F8EF
:10146000330C08041843814509D94044631E804564
:1014700000D978E1814500D875E1023C40444946F5
:10148000411A8946081C291CFFF796F85A46424320
:10149000071C291C48469346FFF7D2F83604090476
:1014A000360C0E43B34507D946447B1EB04502D8DF
:1014B000023FB34500D81F1C24042743002403E047
:1014C000B94211D9002400275246381C211C002A99
:1014D00003D03B1C00215842A14105B03CBC9046C2
:1014E0009946A246AB46F0BD081CFFF75FFF041EFD
:1014F00000D0BFE0B94500D242E1019D0099071C30
:101500008D424741E0E7002804D101200021FFF788
:1015100053F880464046FFF749FF002852D1414624
:1015200044460B043C1B1B0CA3460D0C00930124EA
:10153000291C5846FFF740F8009F81464743291C65
:101540005846FFF77DF8330C090419438F4208D938
:101550004B464144013B884502D88F4200D91AE1ED
:101560009946C91B8B46081C291CFFF725F8009BD0
:10157000291C4343071C58460093FFF761F83604C3
:10158000009D0904360C0E43B54207D946447B1E24
:10159000B04502D8023FB54200D81F1C49460E0490
:1015A000374391E75246D243031C0C1C924600215C
:1015B0005842A1412CE7002746428F410121494270
:1015C0008A4620E720231B1A4246351C82403C1CD9
:1015D000DD40DC4087402B1C150C3B43291C86401A
:1015E000201C009317049046FEF7E6FF3F0C011CF9
:1015F000794381468B46201C291CFFF721F8009C6B
:101600000904230C19438B450CD94B464144013B3B
:10161000884500D9BDE08B4500D8BAE0022252428D
:10162000914441445C460C1B201C291C0194FEF78C
:10163000C3FF391C4143041C8B460198291CFEF74B
:10164000FFFF009A090413041B0C19438B4509D9A9
:101650004144631E884500D997E08B4500D894E04B
:10166000023C41445B46CB1A49469B460B041C4353
:1016700000975DE7009D20231B1A4A468240DD400B
:101680001543391C009AD94082408846311C00928B
:10169000D9403A1C82400B1C134301932F0C2B049E
:1016A0001B0C391C40460293FEF786FF029A8146C6
:1016B0004243391C40469346FEF7C2FF019A090493
:1016C000130C19438B450AD94B464919013B8D42EE
:1016D0005DD88B455BD902235B42994449195A4630
:1016E0008A1A101C391C0392FEF766FF029B804683
:1016F0004343391C03989B46FEF7A2FF019A090455
:1017000013041B0C19438B450AD943464919013B65
:101710008D4238D88B4536D902235B42984449190B
:101720005D464D1BAB464946009D0F04424617439C
:101730002A04120C3B042D0C1B0C380C111C5943B1
:1017400042436B436843D3180D0C5B198C469A4295
:1017500002D98022520280181D0C401983450CD3F7
:1017600003D00024B0E61C1C89E665462A041B044D
:10177000120C9B18A6409E42F3D2013F0024A3E620
:1017800000240127A0E69846CAE71C1C6AE7994690
:10179000A5E7994646E70222524291444144E0E6D9
:1017A000F0B55F4656464D464446F0B40D1C85B034
:1017B000061C924698460290019103921F1C141C2D
:1017C0008346A946002B59D1AA4269D9101CFFF7BC
:1017D000EDFD00280AD020231B1A311CD94085407A
:1017E0000B1C2B43864084409946B346250C2304AA
:1017F0001B0C291C48469846FEF7DEFE4646071C91
:101800004643291C4846FEF71BFF5A460904130CA1
:1018100019438E4209D909197B1E8C4200D957E120
:101820008E4200D854E1023F0919891B8946081CE1
:10183000291CFEF7C1FE43464343061C291C4846AB
:101840009846FEF7FDFE5A46130409041B0C194383
:10185000884508D90919731E8C4200D936E1023E29
:10186000884500D832E1380430430027391C05B0E0
:101870003CBC90469946A246AB46F0BD019A9342C5
:1018800062D8181CFFF792FD041E60D1019B9F4295
:1018900000D22CE1029F03998F4260410027E5E7C7
:1018A000002A04D101200021FEF786FE041C201C22
:1018B000FFF77CFD002800D0B9E023042D1B1B0C92
:1018C000A946260C98460127311C4846FEF774FEAF
:1018D00041464143051C8A464846311CFEF7B0FE8E
:1018E0005A460804130C1843824507D900196B1E89
:1018F000844202D8824500D910E11D1C5346C31A08
:10190000181C311C9A46FEF757FE4146414381465A
:1019100088465046311CFEF793FE5A4613040904CC
:101920001B0C194388450BD94B460919013B8C42C6
:1019300000D9CFE0884500D8CCE002235B4299442F
:1019400028044946084391E7002700208EE720231A
:101950001B1A424657468240DF4017435246824098
:101960000192321CDA40291CD9408540131C2B43BC
:1019700002933D0C3B041B0C8846081C291C9A460C
:10198000FEF71AFE534643438146291C40469B46B8
:10199000FEF756FE029A0904130C19438B4506D92B
:1019A0004B46C919013B8F4200D8ABE099465A46D5
:1019B0008A1A101C291C9346FEF7FEFD534643432A
:1019C000291C804658469A46FEF73AFE029A0904B8
:1019D00015042D0C29438A4506D94346C919013BF4
:1019E0008F4200D886E098465746CF1BBA464946F4
:1019F000019F0804424610433D042D0C03043F0C94
:101A00001B0C020C291C594355437B437A43EB18AA
:101A10000F0CDB198C469D4202D980277F02D21918
:101A20001D0C521992455FD356D000271EE7202384
:101A30001B1A311C2F1CD940DF4085400B1C8440F1
:101A40002B4386400193B3462304260C1B0C381C01
:101A5000311C9846FEF7B0FD42464243051C311C3E
:101A6000381C9146FEF7ECFD019F09043B0C19431D
:101A7000894507D909196B1E8C424DD889454BD928
:101A8000023D09194A468A1A101C311C9246FEF77B
:101A900093FD43464343071C311C50469946FEF7CD
:101AA000CFFD019A090413041B0C1943894507D97A
:101AB00009197B1E8C422DD889452BD9023F091963
:101AC0004B46CB1A2D0499462F43FDE61E1CCAE651
:101AD0001F1CAAE6994633E761460A041B04120C50
:101AE0009B18A6409E42A0D201380027BEE60027E0
:101AF0000120BBE68A4500D875E702235B42984483
:101B0000C91971E78B4500D850E702235B4299441D
:101B1000C9194CE71F1CD3E71D1CB3E7023D001990
:101B2000ECE6C04602B4714649084900095C490028
:101B30008E4402BC7047C0468446101C62468C46E8
:101B4000191C634600E0C0461FB500F063FF002883
:101B500001D40021C8421FBD10B500F093FE4042E1
:101B6000013010BD10B500F055FF002801DB00204A
:101B700010BD012010BDC04610B500F04BFF00287D
:101B800001DD002010BD012010BDC04610B500F0E1
:101B9000C3FE002801DC002010BD012010BDC0469E
:101BA00010B500F0B9FE002801DA002010BD0120B8
:101BB00010BDC0460000000038B50E4B0C4A041C96
:101BC0000D1CFFF7EDFF002804D1201C291C01F09B
:101BD00063FD38BD074B064A201C291C01F028FA7A
:101BE00001F05AFD80231B06C018F2E7C046C0462C
:101BF000000000000000E041F8B55F46564644464C
:101C00004D46F0B40C034D00CE0F610A440F214342
:101C1000C400180380465800400D8246D80F844601
:101C20004046400A530F0343D0006D0D371C8346D6
:101C30005246664500D1A4E0AF1A002F00DC09E14E
:101C4000002A3BD1184300D0EAE0630700D187E0C7
:101C50000F232340042B00D182E0221DA242A44185
:101C60006442802309191B040B40371C141C002BF1
:101C700000D17CE0CE4B01359D4200D105E1CD4B3A
:101C8000E40819404807490204430B0B00200021D7
:101C90001B031A0B0B0D6D051B0513436A08C64D7C
:101CA000FF071D4015436D006D08291C3943201C9A
:101CB0003CBC90469946A246AB46F8BDBC4885421E
:101CC000C3D0802000040343382F00DDF0E01F2F35
:101CD00000DD24E12020C01B1A1C814682405846AA
:101CE000F8400243944658464A469040421E90416E
:101CF000FB40624602431F1CA21A9442A441644264
:101D0000C91B091B141C0B029FD549024F0A002F47
:101D100000D1C8E0381CFFF749FB021C083A1F2A13
:101D200000DDB5E02821091A201C9740C840074370
:101D30009440954200DDB2E0551B691C1F2900DD6F
:101D4000DCE01F22551B3B1C221CAB40CA40AC40B0
:101D5000651EAC411343CF401C43391C002574E77A
:101D600080231B040B40371C002B00D082E7904BD4
:101D70004807E4080443C9089D4248D009030B0BF7
:101D800084E7AA1A9446002A00DC98E0504600280E
:101D900052D08748854200D157E780200004034392
:101DA0006246382A00DDFCE01F2A00DD4AE12022DD
:101DB0006046101A1A1C8240824691465846624676
:101DC000D0404A4602439046584652469040421EF2
:101DD0009041424602436046C3401219A242A441C8
:101DE000644259180919141C080200D42DE7704BDD
:101DF00001359D4200D122E16E4B6008194001235C
:101E000023401C1C0443CB071C4349081DE7231C2B
:101E10000B433AD080231B030B431B031B0B35E7FB
:101E2000013F002F65D15846221A9442A4416442D2
:101E3000C91A091B141C66E75846184300D104E769
:101E40000122524294446046002800D0C5E0584622
:101E50000219C3E7002F73D1681C4005400D01280B
:101E600000DCDEE05A46A21A9442BF41C81A7F4203
:101E7000C71B380200D489E05A46141BA34592417F
:101E8000591A52428F1A664641E700230024FDE6A4
:101E9000271C283887400024954200DC4CE7454940
:101EA000AD1A3940D1E6201CFFF780FA203034E724
:101EB0005A461A43531E9A41D2B200271CE7002A01
:101EC00000D0DCE0681C4205520D012A00DC8DE0E8
:101ED000374DA84200D1F3E05D462A19A242A44141
:101EE000644259180919CC07520814434908051CC3
:101EF000ABE62F48854200D0E6E6A6E62B1C1F3B4A
:101F00003A1CDA40131C20296CD03F22551BAF40ED
:101F10003C43601E84411C430021002595E6381C8B
:101F200020381A1CC240101C202F5DD04022D71B25
:101F3000BB405A461A43531E9A4102430027DBE630
:101F4000002D3BD01A4DAA4500D193E080252D04E9
:101F50007F422943382F00DDACE01F2F00DD29E14F
:101F60002025ED1B081C261CA840FE40AC40064363
:101F7000651EAC413443F9405D462C1BA34592419C
:101F80005B1A5242991A55466646BCE6131C3B43FF
:101F9000141C002B00D0BAE60027002100250024E5
:101FA000E5E65A461A43531E9A41D2B2002314E77B
:101FB000FF070000FFFF7FFFFFFF0F800D1C254381
:101FC00058D0FF43002F51D1041BA3459241591A09
:101FD0005242891A5546664695E69648854200D093
:101FE000DEE632E6002793E70023A2E7081C204341
:101FF000002D00D0C4E0002800D1F7E05846184377
:1020000000D122E658460219A242A441644259185E
:102010000919141C0A0200D417E6874B0125194040
:1020200013E6081C2043002D39D1002871D15946F0
:10203000194303D0191C5C46664606E600270021BA
:10204000002494E6604620381A1CC240604691463F
:10205000202800D1ACE04022121A93405A461A437D
:10206000531E9A414B461A430023B6E6714DAA45CA
:1020700000D06FE7191C5C4655466646E5E5002D25
:1020800022D10D1C254377D0D543002D71D15C445E
:102090005C4592415918524289185546A4E60028D9
:1020A0004DD15946194300D194E0191C5C4666464F
:1020B000604DCAE50C43611E8C41E4B200215BE730
:1020C000051C0021002452E65A4DAA4554D0554221
:1020D000802210040143382D00DD81E01F2D00DD3A
:1020E00092E02022501B0A1C84468240201CE840BB
:1020F0000243904662469440601E84414246144327
:10210000E9405C445C459241CB18524299185546CF
:102110006AE65846184300D197E55846271ABC424C
:102120009241C81A5242801A020266D55846041BD0
:10213000A3459241591A5242891A664685E5584686
:10214000184333D04807E40804438020C90800033B
:10215000014208D0DD08054205D15946CA085C078E
:102160001443291C6646630FC9001943E400314D2E
:102170006BE5304A9245AED1191C5C46554664E584
:10218000002836D05846184310D080254807E40868
:10219000C9082D0304432942E5D0D8082842E2D1DA
:1021A0005D46EA085C071443011CDCE7214D4CE561
:1021B000002353E73D1C203D0A1CEA40151C202F3C
:1021C00034D04026F71BB9400C43611E8C412C4390
:1021D0000021D1E680210027C903164D0024C6E561
:1021E0000C43611E8C41E4B200218AE7191C5C4655
:1021F0002BE5191C5C460F4D27E5031C3B4300D122
:102200001CE7011C3C1C20E52020404240190A1C10
:10221000C2409046202D0BD04020451BA9400C43C6
:10222000611E8C4145462C4300216AE70021CBE723
:102230000021F4E7FF070000FFFF7FFFF0B55646DF
:1022400044465F464D46F0B41F1C0B031B0B9846DB
:102250004B0087B0041C81465B0DC80F161C9A46C4
:102260000090002B51D06A4B9A4531D080224146D4
:1022700052030A43630FD2001A43664B904600256F
:10228000E20091469A44002402953B031B0B9B46B7
:10229000FD0F7B00311C5B0D019560D05C4A9342C1
:1022A00054D08021584649030143720FC90011439D
:1022B000584A8B469B18F1000020009A04436A405C
:1022C00003920F2C00D9ADE0534EA4003459A74619
:1022D000404604436ED100210225082488468946E1
:1022E0000295D2E7009C0298C34649460194022811
:1022F00064D0032800D1ABE2012800D038E2019A73
:10230000002402400025A14660E0434623434AD012
:102310004046002800D1C0E1FFF748F8031E272BF4
:1023200000DDB3E128210D1A211C083B4246E9409B
:102330009A400D1C1543221C9A40A8469146374BE3
:1023400000251B1A9A46002402959EE75A4616431A
:102350000320002EB1D1B34600210220ADE75A463A
:1023600032431BD05B46002B00D18AE15846FFF771
:102370001DF8272800DD7DE12822171A011C321CD8
:1023800008395B46FA408B40171C1F43331C8B40B7
:10239000BB46191C214B1B1A00208EE70027BB46A9
:1023A0000021012089E70020012504248046814680
:1023B00002956AE703250C24029566E7019C0394C5
:1023C000039D01222A400024114DA1460020002136
:1023D0002403260B0C0D2405114B34432D052340FB
:1023E0002B435B005B08D207191C4846114307B01A
:1023F0003CBC90469946A246AB46F0BD00228024E4
:1024000024039146024DE1E700240025A146DDE7C3
:10241000FF07000001FCFFFFDC9000000DFCFFFF48
:10242000FFFF0F805546ED1A0495D84500D953E1BA
:1024300000D14EE1049C0025013C4E4604944746E1
:10244000A946584603020C0E1C430902250C23041E
:102450001B0C0091381C291C0193FEF7ADF8019963
:1024600083464143381C8A46291CFEF7E9F8330CA1
:10247000090419438A450CD95B460919013B8C4272
:1024800000D947E18A4500D844E1022252429344F0
:1024900009195346CB1A181C291C9846FEF78CF8CC
:1024A000071C0198291C784382464046FEF7C8F86D
:1024B00036040B04360C33439A4509D91B197A1E8E
:1024C0009C4200D924E19A4500D821E1023F1B1922
:1024D0005E4632041743380CBB46009E009F5146AF
:1024E0003F0C32045B1A5946BA46120C0F043F0CDB
:1024F000904651467A434F434146414356467043C6
:10250000CF19160CBE19B14202D980277F02C0191B
:10251000310C12043604120C4018B618834200D253
:10252000C4E000D1BEE0191A4846861BB145BF4140
:102530007F42CF1BA74200D113E1291C381CFEF7B4
:102540003BF8019902904143381C8946291CFEF74B
:1025500077F8330C0904194389450CD9029B0919F2
:10256000013B8C4200D9FFE0894500D8FCE0029F86
:102570000919023F02974F46CF1B381C291C0597AB
:10258000FEF71AF8071C0198291C78438146059824
:10259000FEF756F836040904360C0E43B14509D946
:1025A00036197B1EB44200D9E0E0B14500D8DDE029
:1025B000023F3619029D4946761A290439430B0415
:1025C00057460A0C1B0C40464546584355437B432F
:1025D0007A43EB18070CDB199D4202D980256D0266
:1025E00052191D0C00041B04000C52191B189642B2
:1025F00035D300D1FCE001231943049E994FF5190E
:10260000002D00DCA1E0480709D00F230B40042B6C
:1026100005D00B1D8B42894149428B44191C5A46F7
:10262000D20107D5904B5C46049E80271C40FF00DA
:10263000A346F5198D4B9D427ADD039C0122224071
:1026400000248B4DA146C1E680242403474627423F
:102650004CD13C432403240B009A854DB6E6361931
:10266000481EB4425ED9011C9642C4D1009E9E42CF
:10267000C1D1C2E7031C283B311C99408B46002185
:1026800088E6301CFEF792FE203072E6283B211CC3
:10269000994000228846914651E6201CFEF786FEAE
:1026A00020303BE60021B14500D33DE7009F5A466C
:1026B000B944B945BF417F423F19FB18013A9C42DA
:1026C0001ED2984200D97EE000D1B5E0191A934697
:1026D0002AE7894500D8ADE648464646424677088F
:1026E000D3074608C0071E438146AAE65846204243
:1026F00012D1044324032A1C240B89465C4D65E651
:10270000A342E3D1009F4F45DBD9211A93460BE743
:10271000171CDDE69B46BCE63C432403240B009AD1
:10272000534D53E6B24259D800D18AE0011C62E70A
:102730005F46C9087B07039E0B437C026D0501229F
:102740009946240B6D0D324040E64A4B049FDB1B3B
:10275000382B10DD039C0122224000240025A146D5
:1027600034E60121494248E7029304E71F1C21E7B0
:10277000019C039441E71F2B40DC3F48049F0C1C45
:102780003A1858469140DC40904020430A1C511EA4
:102790008A41011C11435A46DA40131C480709D0EC
:1027A0000F220A40042A05D00A1D8A428941494263
:1027B0005B18111C1A0234D5039C0122224000240C
:1027C0000125A14602E6009F02214942B9448B44FB
:1027D000B945894149420919CB18A4E6009D881ED4
:1027E0006900A942AD416D422C19361900913AE7B2
:1027F000002B00D033E70024009437E71F4A049CE5
:102800005D46121BD5402A1C202B1FD01C4E5F4654
:10281000A3199F403B1C19434B1E994111430023B0
:10282000BCE75A07C9080A43039F91465B0201228D
:102830001C0B3A400025C9E54E45C4D893460021FB
:1028400072E6009F9F42C9D3011C0FE70023E2E715
:10285000802424035F463C432403240B019A8946C9
:10286000034DB3E5FF030000FFFFFFFEFE0700007E
:10287000FF07000002FCFFFF1E040000E2FBFFFF59
:102880003E040000F0B55F4656464D464446F0B45F
:102890000D1C041C8046E80F814618030F03000B33
:1028A0003F0B83B084461B48009749005E00DF0F52
:1028B000490D9246760DBB4681420CD015488642A2
:1028C00010D00120B14215D003B03CBC90469946CF
:1028D000A246AB46F0BD009F01202743F4D10D482E
:1028E0008642EED1604602430120002AECD101204D
:1028F000B142E9D1009B6345E6D1D045E4D1D94549
:1029000006D00029E0D11C43201C441EA041DBE777
:102910000020D9E7FF070000F0B55F4656464D4658
:102920004446F0B4CD0FDE0FAC461D032D0BB1466F
:10293000374E0F034C00AB465D0080463F0B640DE5
:1029400092466D0DB44232D0314EB54235D0002C96
:102950000ED1384341424141081C002D0BD00029C3
:1029600019D1CC452DD0654668420123184318E0A3
:10297000002DF6D1281C59460A43534253410028E2
:1029800006D1002BEDD0634658420123184308E0DE
:102990000020002B05D14A465042504140420123BD
:1029A00018433CBC90469946A246AB46F0BD3E1C3F
:1029B0000643C9D002204042F3E75E461643C6D024
:1029C000F8E7AC4207DC0BDA614648424841404236
:1029D00001231843E5E76646704201231843E0E708
:1029E0005F450AD80ED000205F45DAD265466842BE
:1029F0006841404201231843D3E762465042012315
:102A00001843CEE7D045F8D80020D045EED3C8E72C
:102A1000FF070000F0B556464D4644465F46F0B409
:102A20000D1C83B0041C0190E80F814618030F03AE
:102A3000000B3F0B84463548009749005E00DF0FCE
:102A4000490D9246760DB846814234D02F488642D1
:102A500036D0002918D0002E1FD1341C67463A43C7
:102A600053425341002C1FD00020002B05D1424679
:102A70005042504140420123184303B03CBC9046B1
:102A80009946A246AB46F0BD0098044360426041BF
:102A9000041C002EE2D00028E9D1C14515D04F46D4
:102AA000784201231843E8E7002BF6D04B46584202
:102AB00001231843E1E7009F02202743DDD1C5E74A
:102AC000674602201743D8D1C3E7B14204DD4A4626
:102AD000504201231843D0E7B14207DB009860451C
:102AE000E4D80AD0009F00206745C6D24F467842FE
:102AF0007841404201231843BFE7019A5245D5D897
:102B0000019A00205245F1D3B7E7C046FF07000005
:102B1000F0B5564644465F464D46F0B41F1C0B03C5
:102B20001B0B9A464B0087B0041C80465B0DC80FF8
:102B3000161C02938146002B68D0694B029999427A
:102B400032D08022534652031A43D200630F1A43F5
:102B50009246644AE00089188046029100240025CC
:102B60003B031B0B9B467800FB0F321C400D03936D
:102B700000D175E05A4B984269D0802259465203E1
:102B80000A43730FD2001A43564B9346C018F20003
:102B9000002303994E4671401C430F2C00D9A9E035
:102BA000514EA4003459A74653461C4300D087E039
:102BB0000025AA46A84608240225D1E74946022D49
:102BC0006CD0032D00D117E2012D00D058E10D404B
:102BD000EDB20024A9460023A046002000212503D1
:102BE0000A0D1C052D0B1205404B2A4313402343AD
:102BF0005B004C465B08E207191C4046114307B0D6
:102C00003CBC90469946A246AB46F0BD5346234392
:102C100050D05346002B00D184E15046FEF7C6FB4E
:102C2000031E272B00DD76E128210D1A211C083B0D
:102C30005246E9409A400D1C1543221C9A40AA4670
:102C400090462B4B00241B1A0293002588E75B4615
:102C50001E430323002E9CD1B3460022022398E793
:102C60005B46334321D05846002800D14EE1FEF7A1
:102C70009DFB272800DD42E128210F1A021C311C90
:102C8000083A5B46F94093400F1C1F43331C9340A6
:102C9000BB461A1C164B181A00237AE701230B4077
:102CA00000249946A0460E4B97E70027BB4600221A
:102CB00001236EE7002104248A46884601254FE758
:102CC0000C2403254CE700258024A9462403A846AC
:102CD000034B82E7DA46904603991D1C6FE7C04616
:102CE000FF07000001FCFFFF1C910000FFFF0F80A9
:102CF0000DFCFFFF029F160C381804904046070C8D
:102D00000004000C1204120C031C5343041C3D1C51
:102D10007443554398463B1C73436419A446444688
:102D20000293230C63449D4204D9029D80246402D3
:102D30002D1902951D0C039545462C041B04240CEB
:102D40001C1905945C46230C051C58432404240CD0
:102D50008446381C604365435F438146CC44280C5D
:102D60006044BB46814502D980277F02BB442D04C5
:102D7000070C2D0C000440195546BC462F04E344B3
:102D80008446280C3D0C2F1C5743B8462F1C774314
:102D90004243B94647463F0C9144BA46D144464364
:102DA0004A4502D980225202B6184F463A0CB6184C
:102DB0003A0447463F043F0CB8462F1C67435D4327
:102DC0004443584365190190380C2D184244B846C5
:102DD000AC4204D9019880235B02C0180190039C87
:102DE000029F201C6044C0196045A44147466442CC
:102DF000A4462B043C049946240C4C44A046D844D9
:102E00008018C246E244904292415746524291464F
:102E1000F219E245BF417F424B46BC46D845BF410F
:102E2000D4187F4263461F432D0C7F19B242924152
:102E30004C45AD4152426D421543019E7D19AB197F
:102E4000E20D5B02059F134342023A439A46531E2A
:102E50009A41C30D101C184364022043804650461B
:102E6000C0010DD5454601225646049C6B082A40F8
:102E70001A43F30701341A43760804949046B24685
:102E8000049E634FF319002B61DD404640070BD0D1
:102E90000F2244462240042A06D0424604324245CC
:102EA00080414042824490465546ED0107D5594B3A
:102EB0005646049F80201E40C000B2463B18564A2A
:102EC000934200DDEAE644465546E20868071043AF
:102ED00001226C025B050A408046240B5B0D914683
:102EE0007BE6DA4690461D1C69E68024240357469B
:102EF00027421CD13C432403240B484B6DE6031CA2
:102F0000283B311C99408B460022C3E6301CFEF75B
:102F10004DFA2030ADE6283B211C994000228A461C
:102F200090468EE6201CFEF741FA203078E658469F
:102F3000204207D1044303992403240B8946904679
:102F4000364B4AE63C432403240B344B45E6344BD2
:102F5000049E9B1B382B06DD01230B400024994661
:102F6000A046002339E61F2B25DC049C2D4D464648
:102F70006019524644468640DC4082405746301C29
:102F80002243DF40441EA04102433B1C540709D0AA
:102F90000F201040042805D0101D9042924152424B
:102FA0009B18021C1D021AD501230B4000249946D0
:102FB000A046012311E61C48049C5546001BC54051
:102FC000281C202B16D0194E5746A21997403A1CA0
:102FD00043461A43531E9A4102430023D6E758073B
:102FE0005B02D2081C0B01230B401043994680461C
:102FF0000023F2E50022EBE780242403504601235E
:10300000044319402403240B8946044BE5E5C046DC
:10301000FF030000FFFFFFFEFE070000FF070000A8
:1030200002FCFFFF1E040000E2FBFFFF3E04000065
:10303000F8B55F46564644464D46F0B40C034D0085
:10304000CF0F610A440F2143C4001803DE0F8046EE
:10305000B44646465800760A530F3343D600D14A49
:103060006D0DBA46400DB346904200D1F5E0624680
:10307000012672409446674500D1ABE02F1A002F1D
:1030800000DC11E100283ED15846184300D0F1E0A1
:10309000600700D197E00F232340042B00D122E1E9
:1030A000221DA242A4416442802309191B04012766
:1030B00050460B400740141C002B00D179E0B94B5F
:1030C00001359D4200D10BE1B74BE4081940480798
:1030D000490204430B0B002000211B031A0B0B0DAC
:1030E0006D051B0513436A08B04DFF071D401543CE
:1030F0006D006D08291C3943201C3CBC9046994644
:10310000A246AB46F8BDA7488542C1D08020000446
:103110000343382F00DDFDE01F2F00DD31E12020CB
:10312000C01B1A1C5E468240FE40324394465A46FB
:103130008240101C421E9041FB40624602431F1C0D
:10314000A21A9442A4416442C91B091B141C0A021E
:103150009ED549024F0A002F00D1D6E0381CFEF759
:1031600025F9021C083A1F2A00DDC3E02821231C90
:10317000091A9740CB401F439440954200DDC0E0C0
:10318000551B691C1F2900DDEAE01F22551B3B1C53
:10319000221CAB40CA40AC40651EAC411343CF403B
:1031A0001C43391C002573E780217E4D0027C9038D
:1031B00000247C4B4807E4080443C9089D4250D0D2
:1031C00009030B0B87E780231B04012752460B40A2
:1031D000174071E72A1A9446002A00DCA1E0002873
:1031E00054D07048854200D152E780200004034348
:1031F0006046382800DD0EE11F2800DD57E16246F9
:103200002020801A1E1C8640B1465E46D6404A46A3
:1032100032435E4686409046301C421E90414246F4
:1032200002436046C3401219A242A44164425918A5
:103230000919141C080200D42AE75A4B01359D4293
:1032400000D131E1584B60081940012323401C1C78
:103250000443CB071C4349081AE71E4300D00AE782
:1032600005E7231C0B433BD080231B030B431B03AD
:103270001B0B30E7013F002F6DD15E46A21B94422D
:10328000A4416442C91A091B141C60E7584618433C
:1032900000D1FDE601267642B4446046002800D005
:1032A000D0E05E463219BFE7002F00D080E0681CF6
:1032B0004005400D012800DCE8E05A46A21A94427D
:1032C000BF41C81A7F42C71B3E0200D498E058464F
:1032D000041BA3459241591A52428F1AE2463AE71B
:1032E00000230024F7E680231B04012756460B40E9
:1032F0003740E1E6271C283887400024954200DC4F
:103300003EE72949AD1A3940C2E6201CFEF74EF8C7
:10331000203026E75A461A43531E9A41D2B200275C
:103320000EE7002A00D0DEE0681C4605760D012E6F
:1033300000DC90E01B4DA84200D1F5E05E4632195A
:10334000A242A441644259180919CC0752081443F7
:103350004908051C9CE61348854200D0D9E697E64B
:103360002B1C1F3B3E1CDE40331C20296FD03F220C
:10337000551BAF403C43601E84411C430021002587
:1033800086E6381C20381E1CC640301C202F60D01A
:103390004022D71BBB405A461A43531E9A41024350
:1033A0000027CDE6FF070000FFFF7FFFFFFF0F8034
:1033B000002D37D0B64DA84200D18FE080252D04D6
:1033C0007F422943382F00DDA8E01F2F00DD24E1D4
:1033D0002025ED1B0E1CAE40B046261CFE4042468A
:1033E000AC401643651EAC413443F9405A46141BA9
:1033F000A34592415B1A5242991A051CE246A6E681
:10340000131C3B43141C002B00D0A4E60027002112
:1034100000250024CDE65A461A43531E9A41D2B2E3
:10342000002300E70D1C254358D0FF43002F51D146
:103430005A46141BA3459241591A5242891A051C37
:10344000E24684E69248854200D0D1E620E6002795
:1034500090E700239FE7081C2043002D00D0C2E026
:10346000002800D1EFE05846184300D110E6584636
:103470000219A242A441644259180919141C0A02F3
:1034800000D405E6834B0125194001E6081C2043C2
:10349000002D38D100286FD15946194303D0191C8B
:1034A0005C46E246F4E500270021002481E6604600
:1034B00020381A1CC2406646101C202E00D1AAE0FB
:1034C0004022921B93405A461A43531E9A4102438C
:1034D0000023A8E66E4DA84200D073E7191C5C4695
:1034E000051CE246D4E5002D22D10D1C254376D0E3
:1034F000D543002D70D15C445C459241591852422D
:103500008918051C96E600284CD15946194300D16C
:103510004AE6191C5C46E2465D4DB9E50C43611E66
:103520008C41E4B2002161E7051C0021002440E643
:10353000574DA84253D05542802216043143382DAE
:103540007BDC1F2D00DD8CE02022561B0A1CB446BC
:10355000B240261CEE403243904662469440661EBE
:10356000B44142461443E9405C445C459241CB1867
:1035700052429918051C5DE65846184300D187E56C
:103580005E46A71BBC429241C81A5242801A0602EC
:1035900060D55846041BA3459241591A5242891AD4
:1035A000E24675E55846184333D04807E40804431B
:1035B0008020C9080003014208D0DD08054205D17A
:1035C0005946CA085C071443291CE246630FC90028
:1035D0001943E4002E4D5BE52D4A9042AFD1191CF2
:1035E0005C46051C54E5002830D05846184310D0DE
:1035F00080254807E408C9082D0304432942E5D083
:10360000D8082842E2D15D46EA085C071443011C51
:10361000DCE71F4D3CE5002355E73D1C203D0E1C1B
:10362000EE40351C202F2ED04026F71BB9400C430E
:10363000611E8C412C430021D8E60C43611E8C4155
:10364000E4B2002190E7191C5C4621E5191C5C4698
:103650000F4D1DE5031C3B4300D124E7011C3C1C1E
:1036600016E52026764276190A1CF2409046202D57
:103670000BD04026751BA9400C43611E8C4145466A
:103680002C43002170E70021D1E70021F4E7C04678
:10369000FF070000FFFF7FFF70B50B1C124C0903F2
:1036A0000E0B5900021C490DDD0F0020A14211DD57
:1036B0000E4881420FDC8020400306430C48401A2C
:1036C0001F280BDD0B4A521AD640321C5042002DE7
:1036D00000D1101C70BD084BE818FBE7074BC24037
:1036E000C9188E403243F1E7FE0300001D040000BC
:1036F0003304000013040000FFFFFF7FEDFBFFFF1A
:10370000F8B5041E31D0C70F00D04442201CFDF78D
:103710004DFE184D2D1A0A2819DD0B38844024035C
:103720006D05240B6D0D3A1C0026002000210B0DA9
:103730002403240B1B0523430F4C2D051C402C4355
:1037400064006408D307211C301C1943F8BD061C13
:103750001536231CB3401E1C0B23181AC440240327
:103760006D05240B6D0D3A1CDFE7002200250024B7
:103770000026DAE71E040000FFFF0F8010B5041ECC
:1037800028D0FDF713FE154A121A0A2815DD0B384A
:10379000844024035205240B520D002300200021F5
:1037A0002403181C0B0D240B1B0523430C4C120582
:1037B0001C4014436400610810BD031C1533211C18
:1037C00099400B1C0B21081AC44024035205240BFA
:1037D000520DE3E7002200240023DFE71E0400006F
:1037E000FFFF0F800FB480B582B000AF0D4B1B7888
:1037F000002B02D101235B420DE03B1C14333B60E4
:1038000009493A693B68081C111C1A1C00F0DAF8D7
:10381000031C7B607B68181CBD4602B080BC08BCE2
:1038200004B01847C8E0FF1F2D38000090B583B0E2
:1038300000AF78600A4B1B78002B02D101235B425A
:1038400009E0074B9C68064B5A683B1D101C191C6D
:103850000122A0470123181CBD4603B090BDC046FD
:10386000C8E0FF1F80B586B000AFB9607A603B60EA
:103870003B1C0F33021C1A70BB687B610EE03B1CC3
:103880000F3300229A563B6A101C98473B681B680E
:103890005A1C3B681A607B6901337B617A697B68DB
:1038A0009A42ECDBBD4606B080BDC04680B58CB008
:1038B00000AFF860B9607A603B600023FB61FB6891
:1038C000BB61BB695A1CBA6100221A707B68002B6D
:1038D00036D0BB681B68FB62FB6A002B07D1BB6953
:1038E00030221A70FB690133FB61FB6966E023E05B
:1038F000F86A3968FCF7AEFE031C7B617B693A68A5
:103900005343FA6AD31ABB62BB6A002B06DABB6A5E
:103910003B623B6A3022D31ABB6202E0BB6A30339F
:10392000BB627B69FB62BB695A1CBA61BA6AD2B2DC
:103930001A70FB690133FB61FB6A002BD8D13CE0B4
:10394000BB681B687B627B6A002B07D1BB69302296
:103950001A70FB690133FB61FB692FE02AE03B68C9
:10396000786A191CFCF728FE031C3B613B683A6926
:1039700053437A6AD31A3B623B6A092B03D83B6AEA
:1039800030333B620BE03B1C38331B78002B01D0FB
:10399000412300E061233A6A9B180A3B3B623B6982
:1039A0007B62BB695A1CBA613A6AD2B21A70FB696F
:1039B0000133FB617B6A002BD1D1FB69181CBD462A
:1039C0000CB080BD80B59CB002AFF860B9607A6081
:1039D00000233B660023FB650023BB613B1C4A338D
:1039E00000221A7000233B61BB687B6699E17B6C07
:1039F000252B07D07A6CFB68101C9847BB690133F4
:103A0000BB618BE13B1C4B3301221A7000237B65A9
:103A10000023BB651CE07B6E01337B667B6E1B78ED
:103A20005BB27B647B6C2F2B0DDD7B6C392B0ADC4E
:103A30007A6D131C9B009B185B001A1C7B6CD318BF
:103A4000303B7B6504E07B6E013B7B660123BB65FD
:103A5000BB6D002BDFD006233B657B6E01337B669D
:103A60007B6E1B785BB22E2B25D100233B65002398
:103A7000BB651CE07B6E01337B667B6E1B785BB2A3
:103A80007B647B6C2F2B0DDD7B6C392B0ADC3A6D54
:103A9000131C9B009B185B001A1C7B6CD318303BDB
:103AA0003B6504E07B6E013B7B660123BB65BB6D20
:103AB000002BDFD002E07B6E013B7B667B6E013327
:103AC0007B667B6E1B785BB27B647B6C642B1BD04C
:103AD0007B6C692B18D07B6C662B15D07B6C462BCE
:103AE00012D07B6C782B0FD07B6C582B0CD07B6C5E
:103AF0006F2B09D07B6C622B06D07B6C702B03D0B4
:103B00007B6C752B00D0C5E07B6C642B02D07B6C8A
:103B1000692B19D17B681A1D7A601B687B613A1C7E
:103B20001C323B1C1433391C4B3109780091101C9A
:103B3000191C01220A23FFF7B9FE031CFB653A1C7E
:103B40001C32FB6DD3183B667B6C582B02D07B6C10
:103B5000782B20D17B6C782B03D13B1C4B3300227C
:103B60001A707B681A1D7A601B683B613A1C1C3214
:103B70003B1C1033391C4B3109780091101C191C67
:103B800000221023FFF792FE031CFB653A1C1C3237
:103B9000FB6DD3183B667B6C6F2B08D17B681A1DBD
:103BA0007A601B683B613B1C4A3308221A707B6CAD
:103BB000622B0DD17B681A1D7A601B683B613B1C30
:103BC0004A3302221A703A1C1C32FB6DD3183B6632
:103BD0007B6C702B0DD17B681A1D7A601B683B6172
:103BE0003B1C4A3310221A703A1C1C32FB6DD3184E
:103BF0003B667B6C752B0DD17B681A1D7A601B6848
:103C00003B613B1C4A330A221A703A1C1C32FB6D82
:103C1000D3183B667B6C6F2B08D07B6C622B05D076
:103C20007B6C702B02D07B6C752B16D13B1C4A33FE
:103C30001B78391C1C313A1C1032381C4B30007870
:103C40000090081C111C0022FFF730FE031CFB65CE
:103C50003A1C1C32FB6DD3183B667A6DF96D3B1C28
:103C60001833F86800902020FFF7FCFD3B6E002B16
:103C70000FD00AE03B6E5A1E3A661B785AB2FB68B8
:103C8000101C9847BB690133BB613B6E1B78002B4E
:103C9000F0D143E07B6C632B0ED17B681A1D7A60F8
:103CA0001B68DBB25BB23B643A6CFB68101C984744
:103CB000BB690133BB6131E07B6C732B27D17B681F
:103CC0001A1D7A601B68FB64FB6C002B26D0FB6C12
:103CD000181C03F0D4F8031CFB657A6DF96D3B1CCE
:103CE0001833F86800902020FFF7BCFD0AE0FB6C59
:103CF0005A1CFA641B785AB2FB68101C9847BB69BF
:103D00000133BB61FB6C1B78002BF0D106E07A6CB1
:103D1000FB68101C9847BB690133BB617B6E0133A4
:103D20007B667B6E1B785BB27B647B6C002B00D068
:103D30005DE6BB69181CBD461AB080BD80B584B075
:103D400000AF7860114B1B68002B02D10F4B104A5B
:103D50001A600E4B1B68FB600C4B1A687B68D2180C
:103D60000C4B9A4207D903F037F8031C0C221A6057
:103D700001235B4206E0054B1A687B68D218034BAF
:103D80001A60FB68181CBD4604B080BDD8E0FF1F58
:103D900018EAFF1F18EEFF1F80B500AF034A882303
:103DA0005B010021D150BD4680BDC046007004407B
:103DB00080B582B000AF021CFB1D1A70064BFA1DC5
:103DC0001278111C1F220A400121081C9040021C7D
:103DD0001A60BD4602B080BD00E100E090B585B03C
:103DE00000AF78607B681B0C084A9B18FB60FB687F
:103DF000FA6811687A681204120C0120041C9440BD
:103E0000221C0A431A60BD4605B090BD00700440F4
:103E100080B582B000AF021CFB1D1A70FB1D1B7821
:103E20005BB2181CFFF7C4FFBD4602B080BDC046A0
:103E300080B582B000AF78600A1CFB1C1A70FB1CB6
:103E40001B78002B06D07B681B6A40221A437B68D4
:103E50001A6207E07B681B6A4022191C91430A1C06
:103E60007B681A62BD4602B080BDC04680B582B094
:103E700000AF786039603B68012B07D90848F82308
:103E8000191CFF31074A084B01F016FE7B683A689F
:103E900004329200D358181CBD4602B080BDC04603
:103EA000A08A00006C910000B88A000080B584B040
:103EB00000AFF860B960FB1D1A70FB68BA68920029
:103EC000D258084B1A40FB1D1B781902E023DB0077
:103ED0000B40111C1943FB68BA689200D150BD46D3
:103EE00004B080BDFFF8FFFF80B500AF084B181C81
:103EF000FFF774FF074B181C00210022FFF7D6FFC5
:103F0000044B181C01210022FFF7D0FFBD4680BDE5
:103F10000A00381000A0044080B584B000AF0F2024
:103F2000FFF776FF3B1D181C00F05AFF084A3B1DA7
:103F3000101C191C00F0C4FE054B181C0021FFF7D3
:103F400077FF034B181C00F07DFFBD4604B080BD19
:103F500000B0034080B500AF084A094B101C002197
:103F60001A1C01F01BF8074B01221A70064B0122A4
:103F70001A70064B00221A70BD4680BD00B0034087
:103F800064910000E5E0FF1FE2E0FF1FE4E0FF1F97
:103F900080B500AF084A094B101C00211A1C00F024
:103FA000FDFF074B01221A70064B01221A70064BC7
:103FB00000221A70BD4680BD00B003405C91000035
:103FC000E6E0FF1FE2E0FF1FE3E0FF1F80B500AF68
:103FD0001E4B1B78DBB2002B1FD01D4B181C002181
:103FE000FFF744FF031C181CFDF704F9031C181C01
:103FF0001849FCF73FFE031C181C1749FCF756FC38
:10400000031C1A1C154B1A60104B00221A70144B1B
:1040100000221A70134B01221A70134B1B78DBB26B
:10402000002B11D00A4B181C0021FFF71FFF031CA7
:104030009AB20E4B1A800C4B00221A70084B0022C9
:104040001A700B4B01221A70BD4680BDE5E0FF1FC0
:1040500000B003400000A04100F07F45DCE0FF1FFE
:10406000E2E0FF1FE4E0FF1FE6E0FF1FE0E0FF1FCC
:10407000E3E0FF1F80B582B000AF021CFB1D1A7089
:10408000064BFA1D1278111C1F220A400121081C40
:104090009040021C1A60BD4602B080BD00E100E005
:1040A00090B585B000AF78607B681B0C084A9B1800
:1040B000FB60FB68FA6811687A681204120C012030
:1040C000041C9440221C0A431A60BD4605B090BDF2
:1040D0000070044080B582B000AF7860084A08499B
:1040E000084BC958084B19407B689806C0231B052C
:1040F00003401943034BD150BD4602B080BDC046BA
:104100000070044004100000FFFFFFF380B582B090
:1041100000AF021CFB1D1A70FB1D1B785BB2181C44
:10412000FFF7A8FFBD4602B080BDC04680B584B091
:1041300000AFF860B960FB1D1A70FB68BA689200A6
:10414000D258084B1A40FB1D1B781902E023DB00F4
:104150000B40111C1943FB68BA689200D150BD4650
:1041600004B080BDFFF8FFFF98B500AF084B181CE6
:1041700002F02CFE031C0C1C181C211CFDF78AF8F5
:10418000021C044B1A60044B01221A70BD4698BDF4
:10419000ECE0FF1FE8E0FF1FE7E0FF1F80B500AF86
:1041A000104B181C02F0E4F8021C2023134017D017
:1041B0000D4B1B78DBB201225340DBB2002B0FD03A
:1041C000084A0A4B101C191C012202F05FF9054A2B
:1041D000074B101C191C052202F058F9FFF7C4FF09
:1041E000BD4680BD00A00640E7E0FF1F00EAFF1FBC
:1041F000ECE0FF1F80B500AF084B181CFFF750FF25
:10420000074B181C01210222FFF790FF044B181CDA
:1042100002210222FFF78AFFBD4680BD0900381047
:104220000090044080B582B000AF3B1C0E4A03CA28
:1042300003C30120FFF74EFF002001F0F9F8031C33
:104240000A493A1C081C111C1A1C01F025FF074AD8
:1042500080239B01101C191C02F05EF80C20FFF754
:1042600055FFBD4602B080BDD48A000000A00640C4
:1042700080B584B000AF786039603B1C0F3370228A
:104280001A703B1C0E3370221A707B681A683B68E8
:104290001B68101C191CFCF7EDFC031CBB60144AC6
:1042A0003B1C0F33101C191C012202F0C1F8104AEC
:1042B0007B68101C191C042202F0BAF80C4A3B68F7
:1042C000101C191C042202F0B3F8094A3B1C0833E5
:1042D000101C191C042202F0ABF8054A3B1C0E33DB
:1042E000101C191C012202F0A3F8BD4604B080BDC9
:1042F00000A0064080B582B000AF78600A1CFB1CAD
:104300001A70FB1C1B78002B0BD07A682123D35C1E
:10431000DBB2802252421343D9B27A682123D154AE
:1043200009E07A682123D35CDAB27F231340D9B243
:104330007A682123D154BD4602B080BD80B582B0D9
:1043400000AF3B1D181C01F059FC094A3B1D101C15
:10435000191C01F009FC064B181C0121FFF7CAFFCC
:10436000034B181C002101F09BFCBD4602B080BD30
:1043700000F0034090B585B000AF786078688B217D
:10438000C905FCF777FC031C181C0B49FCF78EFAD7
:10439000031C3C1C0E34181CFCF73AFA031C238047
:1043A000064A3B1C0E331B88101C00211A1C01F00E
:1043B00043FCBD4605B090BD0000A04000F00340A6
:1043C00080B582B000AF021CFB1D1A70064BFA1DAF
:1043D0001278111C1F220A400121081C9040021C67
:1043E0001A60BD4602B080BD00E100E080B582B039
:1043F00000AF021CFB1D1A70064AFB1D1B78191C1E
:104400001F230B40012199408023D150BD4602B0AB
:1044100080BDC04600E100E090B585B000AF786097
:104420007B681B0C084A9B18FB60FB68FA681168E4
:104430007A681204120C0120041C9440221C0A43C6
:104440001A60BD4605B090BD0070044080B582B0D2
:1044500000AF7860084A0849084BC958084B194012
:104460007B681806C0239B0403401943034BD150BB
:10447000BD4602B080BDC04600700440041000007C
:10448000FFFFFFFC80B582B000AF021CFB1D1A705D
:10449000FB1D1B785BB2181CFFF792FFBD4602B0F4
:1044A00080BDC04680B582B000AF021CFB1D1A70F3
:1044B000FB1D1B785BB2181CFFF798FFBD4602B0CE
:1044C00080BDC04680B586B000AFF860B9607A6044
:1044D0007B68002B06D10949094A0A4B081CD121E7
:1044E00001F0EAFABB689B00FA68D3187B617B692C
:1044F0007A6812881A80BD4606B080BDDC8A00004A
:104500008C910000F48A000080B584B000AFF860A0
:10451000B960FB1D1A70FB68BA689200D258084B4C
:104520001A40FB1D1B781902E023DB000B40111C15
:104530001943FB68BA689200D150BD4604B080BDF3
:10454000FFF8FFFF80B584B000AFF860B960FB1DD5
:104550001A70FB68BA689200D258084B1A40FB1DCB
:104560001B781904F0231B030B40111C1943FB6833
:10457000BA689200D150BD4604B080BDFFFFF0FF85
:1045800080B584B000AF78600A1CFB1C1A707B6891
:104590001B68FB60FB6818229343FB60FB1C1B78C5
:1045A000DA0018231340FA681343FB607B68FA684B
:1045B0001A60BD4604B080BD80B582B000AF124B1A
:1045C000181CFFF729FF114B181C05210322FFF7C8
:1045D0009BFF3B1D00221A803B1D1A7803218A4352
:1045E00002210A431A703B1D5A7807218A43012190
:1045F0000A435A70054A3B1D101C0D211A1CFFF777
:1046000061FFBD4602B080BD090038100090044033
:1046100080B588B002AF0120FFF718FF3B1C1733AD
:1046200002221A703B1C083302221A703B1C08330A
:104630003A1C173212785A703B1C083300229A70C9
:104640003B1C0C33181C02F05FF91A4A3B1C0C335C
:10465000101C191C02F0E8F8042000F0E9FE011C0F
:10466000144A3B1C0833144800900191101C191C7B
:104670000122002302F078F90E4B181C0121FFF7EC
:104680007FFF3B1D00221A703B1D00225A700B4B0E
:10469000181C0D210A22FFF755FF1E20FFF7F2FE1E
:1046A000074A3B1D101C0D211A1C01F00DFCBD46D4
:1046B00006B080BD00800340A86100000090044067
:1046C00000F00F4080B584B000AF78607B6859225D
:1046D0005343181C0A49FBF76FFF031CDAB23B1C5B
:1046E0000F330A321A70074A3B1C0F331B78101C19
:1046F0000221002202F042FABD4604B080BDC0464D
:10470000FF0F00000080034080B582B000AF1E2084
:10471000FFF7C8FE094B1B78DBB21A1C131C1B01E8
:104720009B1A5B007B60054B00221A701E20FFF76E
:10473000A9FE7B68181CBD4602B080BDF8E0FF1FD3
:1047400080B500AF074A80239B01101C191C01F0A3
:10475000F7FB054B1B78DBB20133DAB2024B1A7060
:10476000BD4680BD00F00F40F8E0FF1F80B584B06B
:1047700000AF3B1C0F3300221A703B1C0E3300228B
:104780001A703B1C0D3301221A700023BB600023FA
:104790007B6001233B60FFF70FFFFFF72BFDFFF767
:1047A000A3FB02F0FBFA02F091FAFFF7B5FBFFF76B
:1047B000C5FDFFF72DFFFFF735FD00F09DF96E4BAE
:1047C0001B78DBB2002B52D06B4B00221A706B4B64
:1047D0001B78DBB25BB2633B172B45D89A00684B62
:1047E000D3181B689F46674B1A68674B1A60664B65
:1047F0001B68181CFFF7BEFD3B1C0E3300221A700D
:104800003B1C0F3300221A702EE05E4B1B68BB600E
:104810003B1C0F3301221A703B1C0E3300221A700E
:1048200022E0584B1B687B603B1C0E3301221A7040
:104830003B1C0F3300221A7016E0534B00221A6003
:104840000023181CFFF796FD3B1C0E3300221A7044
:104850003B1C0F3300221A7006E04B4A4B4B101CD6
:10486000191CFFF705FDC046444B00221A703B1C83
:104870000F331B78002B17D0444B1B68181C0021EA
:10488000FBF756FF031C002B0ED1404B1B68B8688A
:10489000191CFCF70BF8031C1A1C3B4B1A603A4B13
:1048A0001B68181CFFF766FD3B1C0E331B78002BA2
:1048B00017D0364B1B68181C0021FBF739FF031C6F
:1048C000002B0ED1314B1B68181C7968FBF7EEFFEB
:1048D000031C1A1C2C4B1A602A4B1B68181CFFF770
:1048E00049FD2B4B1B78DBB2002B2CD0294B1B78BE
:1048F000DBB201225340DBB2002B0BD03B1C0D334B
:104900001B78002B06D0FFF725FB3B1C0D33002244
:104910001A7018E01F4B1B78DBB201225340DBB248
:10492000002B10D03B1C0D331B7801225340DBB20F
:10493000002B08D0FFF72CFB3B1C0D3301221A7013
:10494000134B00221A70144B1B78DBB2002B06D0DD
:10495000114B00221A70FFF7D7FE031C3B600F4B70
:104960001B78DBB2002B06D00D4B1B889BB2181CAA
:10497000FFF7A8FE23E722E7E7E0FF1F00EAFF1F9B
:10498000A0910000E8E0FF1FF4E0FF1FDCE0FF1F44
:10499000FAE0FF1FE2E0FF1FF9E0FF1FE3E0FF1F67
:1049A000E0E0FF1F80B582B000AF021CFB1D1A7053
:1049B000064BFA1D1278111C1F220A400121081C07
:1049C0009040021C1A60BD4602B080BD00E100E0CC
:1049D00080B582B000AF021CFB1D1A70FB1D1B7856
:1049E0005BB2181CFFF7DEFFBD4602B080BDC046BB
:1049F00080B584B000AFF8607A603B1C0B330A1CB2
:104A00001A703B1C0B3319783B1C0B331A78F8686F
:104A100084235B0012018218D3181A687B681A433A
:104A2000F86884235B0009014118CB181A60BD4661
:104A300004B080BD80B582B000AF78600A1CFB1C5A
:104A40001A70FB1C1A78796884235B0012018A189B
:104A5000D3185A6801231340181CBD4602B080BD0C
:104A600080B584B000AFF8607A603B1C0B330A1C41
:104A70001A703B1C0B331A78F96884235B0012010F
:104A80008A18D3187A685A60BD4604B080BDC04603
:104A900080B584B000AFF8607A603B1C0B330A1C11
:104AA0001A703B1C0B331A78FB68103212017968BC
:104AB000D150BD4604B080BD80B582B000AF7860F3
:104AC0000A1CFB1C1A70FB1C1978FB1C1A787868EE
:104AD00084235B0012018218D3181B6801221A4339
:104AE000786884235B0009014118CB181A60BD4621
:104AF00002B080BD00000000F0B587B000AF3B1CE5
:104B0000143301221A70344A3B1C1433101C191C34
:104B100001F07CFD304B181C00210222FFF768FFDA
:104B20002D4B181C01210222FFF762FF022000F02A
:104B30007FFC031CBB600023FB60B868F968254B51
:104B4000234AFBF743FE031C0C1C181C211C214BA1
:104B50001F4AFBF71BFE031C0C1C1F4A101C0021E4
:104B60001A1CFFF795FF022000F062FC031C1D1CBD
:104B700000231E1C2B1C341C9A0FA100796079683D
:104B8000114379609A003A603B687C685B19744114
:104B9000DB186441181C211C0E4B0D4AFBF7F6FD77
:104BA000031C0C1C0C4A101C01211A1CFFF770FF7F
:104BB000094B181C0021FFF77FFF074B181C012130
:104BC000FFF77AFF1620FFF703FFBD4607B0F0BDE1
:104BD000E80300000000000000700340C046C0462B
:104BE00080B500AF114B181C0021FFF723FF031CF9
:104BF000002B08D00E4B01221A700C4B181C002100
:104C00000122FFF72DFF094B181C0121FFF712FFAE
:104C1000031C002B08D0074B01221A70034B181CF1
:104C200001210122FFF71CFFBD4680BD007003403B
:104C3000F9E0FF1FFAE0FF1F90B585B000AF786084
:104C40007B681B0C084A9B18FB60FB68FA681168BC
:104C50007A681204120C0120041C9440221C0A439E
:104C60001A60BD4605B090BD0070044080B584B0A8
:104C700000AF78600023FB6007E00D4A7B689A4232
:104C800000D105E0FB680133FB60FB68002BF4D02A
:104C9000FB68002B06D00749074A084B081C442133
:104CA00000F00AFFFB68181CBD4604B080BDC0467A
:104CB00000B00340FC8A000000920000148B00004A
:104CC00080B584B000AF786039603B68002B06D1B6
:104CD0003F49404A404B081C4B2100F0EDFE7B68E9
:104CE000181CFFF7C3FF3D4B181CFFF7A5FF3B68DF
:104CF0005B781A1C03231A403B681B7999000C232C
:104D00000B401343FB603B685B79042B03D0FB68CB
:104D100010221343FB603B68DB785A016023134089
:104D2000FA681343FB603B68DB79002B03D0FB6818
:104D300080221343FB607B68FA689A607B68DB68BB
:104D40000F229343FB603B685B79042B07D03B68E1
:104D50005B791A1C03231340FA681343FB603B681A
:104D60009B79002B03D0FB6804221343FB603B6854
:104D70009B78002B03D0FB6808221343FB607B6801
:104D8000FA68DA607B681B6A03229343FB603B6826
:104D90001B781A1C03231340FA681343FB607B68DB
:104DA000FA681A623B681B7A002B06D07B685B6A44
:104DB00008221A437B685A6207E07B685B6A082214
:104DC000191C91430A1C7B685A62BD4604B080BD21
:104DD000FC8A0000149200003C8B00001B003C1079
:104DE00080B582B000AF78607B68002B06D1124995
:104DF000124A134B081C872100F05EFE7B680022DC
:104E00001A707B6803225A707B6801229A707B6853
:104E10000322DA707B6801221A717B6804225A71BE
:104E20007B6800229A717B680022DA717B6800221D
:104E30001A72BD4602B080BDFC8A000020920000BC
:104E40003C8B000080B586B000AF78603B1C173308
:104E500000221A7000233B617B681A6A40231340CA
:104E60000BD03B1C173301221A707B681B6A40224F
:104E7000191C91430A1C7B681A627B685B6AC0221A
:104E80001A437B685A620AE07B68181C00F068F8D5
:104E9000021C4023134002D001233B6108E07B68E1
:104EA000181C002100F0BAF8021C80231340EBD03C
:104EB0007B681B69FB603B1C17331B78002B05D0FC
:104EC0007B681B6A40221A437B681A627B68181C45
:104ED00000F046F8021C4023134001D001233B613F
:104EE0003B69002B01D03B6936E07B68DA6C7B685C
:104EF0009B6CD2187B685B6CD2187B681B6CD218D9
:104F00007B68DB6BD2187B689B6BD318FB60FB68FC
:104F10005B08802212021343FB60FA687B68DA6246
:104F20007B68DA6E7B689B6ED2187B685B6ED218EA
:104F30007B681B6ED2187B68DB6DD2187B689B6D1B
:104F4000D318FB60FB685B08802212021343FB60EE
:104F5000FA687B681A630023181CBD4606B080BD42
:104F600080B584B000AF78600023FB607B681A6A6C
:104F70008023134003D0FB6880221343FB607B68CF
:104F80005A6A4023134003D0FB6840221343FB605E
:104F9000FB68181CBD4604B080BDC04680B586B015
:104FA00000AFF860B9607A60BB68012B07D9174879
:104FB0004E23191CFF31164A164B00F07DFD7B680D
:104FC000002B06D11148A7235900114A124B00F0BB
:104FD00073FD7B681A681F2313407B617B685B79D4
:104FE000002B03D07B69202213437B617B681B79F4
:104FF000002B03D07B69402213437B61FB68BA68B6
:1050000092007969D150BD4606B080BDFC8A00008F
:10501000389200004C8B00003C8B000080B584B0BF
:1050200000AF786039603B68012B07D90C486423D6
:10503000191CFF310B4A0C4B00F03EFD0023FB60B6
:105040007B683A689200D2588023134003D0FB68F3
:1050500080221343FB60FB68181CBD4604B080BD72
:10506000FC8A0000509200004C8B000080B582B09A
:1050700000AF7860074B074A1168074A11407A6809
:105080009004C022120302400A431A60BD4602B0D7
:1050900080BDC04600700440FFFFF3FF80B582B0C2
:1050A00000AF7860084A0849084BC958084B1940B6
:1050B0007B68180480235B0203401943034BD150E3
:1050C000BD4602B080BDC046007004400410000020
:1050D000FFFFFEFF80B584B000AF786039603B1CF5
:1050E0000F337A6812781A703B1C0F333A1C0F3258
:1050F00011785F220A401A703B6819783B1C0F3305
:105100003A1C0F3212780A431A707B683A1C0F322D
:1051100012781A70BD4604B080BDC04680B584B018
:1051200000AF78600A1CFB1C1A703B1C0F337A68B6
:1051300012781A703B1C0F333A1C0F3212780F2171
:105140008A431A703B1C0F33391C0F31FA1C097843
:1051500012780A431A707B683A1C0F3212781A7060
:10516000BD4604B080BDC04680B500AF074B1B688C
:10517000002B06D10649074A074B081CCF2100F037
:105180009BFC024B1B68181CBD4680BD08EAFF1F34
:105190006C8B0000A0920000848B000080B582B070
:1051A00000AFFFF7E1FF031C7B607B68002B01D1A0
:1051B0007B683FE0214B1B78DBB21A1C382313407D
:1051C000DA08FB1C1A70FB1C1B787A68111CD9408A
:1051D0000B1C7B60194B5B78DBB21A1C302313402D
:1051E0001A09BB1C1A70BB1C1B78002B21D0FB1C9E
:1051F0001B78062B0AD002DC002B17DB02E0072B02
:105200000CD013E07B685B097B6012E07B68181CA4
:105210001421FBF7D1F9031C7B600AE07B68181CA2
:105220000C21FBF7C9F9031C7B6002E000237B60C3
:10523000C0467B68181CBD4602B080BD00400640D9
:1052400080B500AF0C4B9B79DBB21A1C01231340D5
:1052500002D10A4B1B680BE0094B1A68064B1B7AFC
:10526000DBB2191C0E230B405B08111CD9400B1C30
:10527000181CBD4680BDC0460040064004E0FF1F2C
:1052800008E0FF1F80B500AF084B9B79DBB21A1C0A
:10529000102313401B0903D1FFF780FF031C01E01B
:1052A000034B1B68181CBD4680BDC046004006402D
:1052B00004E0FF1F80B500AFFFF756FF031C181C6A
:1052C000BD4680BD80B584B000AF78607A680E4B73
:1052D0009A4204D83B1C0F3300221A700CE07A6803
:1052E0000A4B9A4204D83B1C0F3301221A7003E088
:1052F0003B1C0F3302221A703B1C0F331B78181C07
:10530000BD4604B080BDC0469798000000127A00E8
:1053100080B500AF0C4B1B78DBB2DBB25BB2002B6D
:105320000EDA0A4B1B68002B07D109485023191CC1
:10533000FF31084A084B00F0BFFB044B1B6800E03C
:105340000023181CBD4680BD0050064008EAFF1F20
:105350006C8B0000B8920000848B000080B582B096
:1053600000AF1A4B1A68C0231B0313409B0C022B7F
:1053700010D0032B1ED0002B20D1FFF7C9FF021C39
:1053800080231B029A4202D180231B0200E00023EB
:105390007B6016E00E4B1B68002B07D10D48642381
:1053A000191CFF310C4A0D4B00F086FB084B1B68A3
:1053B0007B6006E0FA239B007B6002E000237B60B9
:1053C000C0467B68181CBD4602B080BD007004401A
:1053D00004EAFF1F6C8B0000D0920000908B00004D
:1053E00080B582B000AF104A104BD25880235B02C8
:1053F00013401B0C02D0012B05D00CE000F0D4F8B8
:10540000031C7B600AE000F039F9031C7B607B68B9
:105410005B087B6002E000237B60C0467B68181C51
:10542000BD4602B080BDC0460070044004100000BC
:1054300080B584B000AF021CFB1D1A70FB1D1B78E9
:105440000C2B57D89A002F4BD3181B689F4600F09F
:1054500079F8021C2C492D4BCB581B0F0133101C23
:10546000191CFBF7A9F8031CFB6046E000F06AF882
:10547000021C2549254BCB581B0F0133101C191C4E
:10548000FBF79AF8031CFB601F4A204BD258E0231D
:10549000DB0213401B0C0133F868191CFBF78CF876
:1054A000031CFB6029E0FFF79BFF031CFB6024E06B
:1054B000FFF754FF031CFB601FE000F0C7F8031C5C
:1054C000FB601AE000F0AEF8031CFB6015E000F092
:1054D0006BF8031CFB6010E000F0D0F8031CFB60CD
:1054E0000BE0FA239B00FB6007E0FFF711FF031CB2
:1054F000FB6002E00023FB60C046FB68181CBD4651
:1055000004B080BD6C9200000070044044100000A4
:1055100080B582B000AF7860084A7B685968084B54
:10552000D1507B681B78181CFFF7B8FD7B685B784F
:10553000181CFFF79BFDBD4602B080BD0070044003
:105540004410000080B582B000AF164B9B79DBB2EF
:105550001A1C0C2313409B083B603B68012B0ED0A8
:1055600008D3022B10D0032B13D100F087F8031CB3
:105570007B6011E000F018F8031C7B600CE0FFF783
:105580005FFE031C7B6007E0FFF7EEFD031C7B6002
:1055900002E000237B60C0467B68181CBD4602B059
:1055A00080BDC0460040064080B582B000AF1B4BB6
:1055B0005B78DBB21A1C0223134006D1174B9B7990
:1055C000DBB21A1C2023134001D0002322E0FFF796
:1055D00059FE031C7B607B68002B01D17B6819E0BE
:1055E0000E4BDB78DBB21A1C602313405A09FB1CFC
:1055F0001A700A4BDB78DAB2BB1CD2091A70FB1C9A
:105600001978BB1C1A78064B49008A185200D35AE5
:105610007A685343181CBD4602B080BD0040064066
:10562000E892000080B500AF074B1B78DBB21A1C74
:105630000223134001D1002302E0FFF701FE031C07
:10564000181CBD4680BDC0460040064080B582B0F3
:1056500000AFFFF717FE031C7B607B68002B08D0B0
:10566000FFF770FF031CDA087B689A4201D37B685E
:1056700000E00023181CBD4602B080BD80B582B09A
:1056800000AF194B9B79DBB21A1C4023134001D1A8
:10569000002325E0FFF70EFE031C7B607B68002BD8
:1056A00005D112481249134A134B00F005FA0E4B6C
:1056B0001B79DBB21A1C1F23134001337868191CB5
:1056C000FAF77AFF031C7B60074B5B79DBB21A1C8D
:1056D0001F2313401A1C18327B6853437B607B687E
:1056E000181CBD4602B080BD004006406C8B000017
:1056F0004F020000F8920000A08B000080B582B03D
:1057000000AF021CFB1D1A70FB1DFA1D12781A70E7
:10571000094B5B78DBB21A1C0423134007D0C04648
:10572000054B9B79DBB21A1C02231340F8D00023EF
:10573000181CBD4602B080BD0040064080B584B054
:1057400000AFFB1D1870BB1D19707B1D1A70424BFA
:105750009B79DBB21A1C0C2313409B08FB603E4B69
:105760009B79D9B23B1C0B3301220A401A703A4B89
:105770001B7ADBB21A1C0E2313405A083B1C0A3357
:105780001A707A1D3B1C0A3312781B789A422FD06C
:105790003B1C0B331B78012B19D1FB68012B06D066
:1057A0002D4B1B78DBB21A1C022313400FD02A4B5F
:1057B000294A5278D2B201218A43D2B25A70C046E5
:1057C000254B9B79DBB21A1C01231340F8D1224AE6
:1057D000214B1B7ADBB22F218B43D9B27B1D1B7867
:1057E000DB18D8B20E230340DBB20B43DBB21372DB
:1057F000194B194A5278D2B201218A43D1B2BA1D4B
:10580000107801220240D2B20A43D2B25A70124B2F
:10581000114A1278D2B203218A43D1B2FA1D12780A
:105820000A43D2B21A70FB68012B04D0FB1D1A7810
:10583000022313400AD0C046074B9B79DBB21A1CE7
:1058400001231A40BB1D1B789A42F5D10023181C76
:10585000BD4604B080BDC0460040064080B584B05F
:1058600000AF78607B68002B06D12148BF239900E8
:10587000204A214B00F020F93B1C0F3300221A7004
:105880007B685A781F231340D9B23B1C0F333A1C54
:105890000F3212780A431A70184B3A1C0F321278E2
:1058A0001A71164B154A5279D2B21F218A43D1B2CE
:1058B0007A6890781F220240D2B20A43D2B25A715B
:1058C0000E4B0E4A1279D1B27A6812780A43D2B2DC
:1058D00040210A43D2B21A71C046084B9B79DBB211
:1058E0001A1C40231340F8D0BD4604B080BDC0460A
:1058F0006C8B00000C930000AC8B00000040064055
:1059000090B585B000AF78607B681B683C1C0F3495
:10591000181CFFF7D7FC031C23707B681B791C4AFB
:10592000101C191CFFF7FAFB7B680633184A101C81
:10593000191CFFF7CFFB174B164A5278D2B23C2105
:105940008A43D1B23A1C0F3212781201D0B23022FF
:105950000240D2B20A43D1B27A6852790A43D2B233
:105960005A707B685B79002B0ED0094B1B78DBB239
:10597000DBB25BB2002B07DAC046064B9B79DBB289
:105980001A1C02231340F8D0BD4605B090BDC04696
:10599000005006400040064080B582B000AF021CB7
:1059A0003960FB1D1A70234B224A5278D2B2022171
:1059B0008A43D2B25A701F4B1E4A1278D1B23B2290
:1059C0000A40D2B2802149420A43D2B21A70C0467C
:1059D000184B9B79DBB21A1C1C231340082BF7D100
:1059E000144B144A5279D2B240218A43D2B25A712E
:1059F000C046104B9B79DBB21A1C20231340F8D110
:105A00003B68181CFFF72AFF0A4B0A4A5279D2B2A8
:105A100040210A43D2B25A71C046064B9B79DBB291
:105A20001A1C20231340F8D00023181CBD4602B0D6
:105A300080BDC0460040064080B582B000AF3A60ED
:105A4000FB1D021C1A70BB1D0A1C1A703B68002B40
:105A500005D114481449154A154B00F02DF8FB1DCB
:105A60001B78181CFFF74AFEBB1D1A783B68101CF8
:105A7000191CFFF791FF0F4B0E4A1278D1B23F224B
:105A80000A40D2B21A70C0460A4B9B79DBB21A1C8C
:105A90000C2313409B08032BF6D10023181CBD4692
:105AA00002B080BD6C8B0000EF0500002093000069
:105AB000AC8B00000040064090B587B002AFF860A4
:105AC000B9607A603B6005483968FA68BB687C68F1
:105AD0000094FDF787FE00BEFDE7C046B48B0000D2
:105AE00090B585B000AF78607B681B0C084A9B18A6
:105AF000FB60FB68FA6811687A681204120C0120D6
:105B0000041C9440221C0A431A60BD4605B090BD97
:105B10000070044080B584B000AF78600023FB6063
:105B200007E00D4A7B689A4200D105E0FB6801332B
:105B3000FB60FB68002BF4D0FB68002B06D0074904
:105B4000074A084B081C4321FFF7B6FFFB68181CE7
:105B5000BD4604B080BDC04600F00340F48B000099
:105B6000349300000C8C000080B584B000AF7860E6
:105B700039603B68002B06D11C491D4A1D4B081C8F
:105B80004A21FFF799FF7B68181CFFF7C3FF1A4BE8
:105B9000181CFFF7A5FF7A682123D35CDAB23B1CFF
:105BA0000F3348218A431A703B681B78012B07D1B9
:105BB0003B1C0F333A1C0F32127840210A431A70F3
:105BC0003B685B78002B07D03B1C0F333A1C0F322D
:105BD000127808210A431A707A68391C0F31212380
:105BE0000978D154BD4604B080BDC046F48B000096
:105BF00044930000348C00001F003C1080B582B03C
:105C000000AF78607B68002B06D10849084A094B31
:105C1000081C6C21FFF750FF7B6801221A707B681B
:105C200000225A70BD4602B080BDC046F48B000011
:105C300050930000348C000080B582B000AF7860D3
:105C4000FB1C19703B1C1A80FB1C1B78012B06D90E
:105C50001049114A114B081CA121FFF72DFFFB1C15
:105C60001A783B1C1B88D9B27B685200D154FB1CAC
:105C70001B783A1C1188F02212010A4092B2120AD3
:105C800092B2D2B279685B00CB185A70BD4602B0AE
:105C900080BDC046F48B000068930000448C000077
:105CA00080B584B000AF78600A1CFB1C1A70FB1C26
:105CB0001B78012B06D91349134A144B081CA92140
:105CC000FFF7FAFE7A682323D35CDAB23B1C0F336A
:105CD00010218A431A70FB1C1B781B01DAB21023B7
:105CE0001340D9B23B1C0F333A1C0F3212780A43CF
:105CF0001A707A68391C0F3123230978D154BD46B4
:105D000004B080BDF48B00007C930000448C000044
:105D100080B584B000AFF860B9607A60BB68032BCF
:105D200007D91048DA23191CFF310F4A0F4BFFF730
:105D3000C3FE7B68002B12D0F968BA6884235B002D
:105D400012018A18D3181B68802252041A43F8687B
:105D5000B96884235B0009014118CB181A60BD465D
:105D600004B080BD5C8C0000A8930000748C00001F
:105D700080B582B000AF78607B68002B06D11148F7
:105D80008A235900104A114BFFF796FE7B68196869
:105D90007B681B791A1C80235B04081C111C1A1CCD
:105DA000FFF7B6FF7B689B68002B07D07B689A687B
:105DB0007B68DB687968081C191C9047BD4602B0F7
:105DC00080BDC046A08C000098930000F08C0000BD
:105DD00080B500AF034B1B68181CFFF7C9FFBD4619
:105DE00080BDC046FCE0FF1F80B500AF034B5B6881
:105DF000181CFFF7BDFFBD4680BDC046FCE0FF1F7D
:105E000080B500AF034B9B68181CFFF7B1FFBD4680
:105E100080BDC046FCE0FF1F80B500AF034BDB68D0
